{
  "contractName": "Cobweb",
  "abi": [
    {
      "constant": true,
      "inputs": [
        {
          "name": "",
          "type": "uint256"
        }
      ],
      "name": "bills",
      "outputs": [
        {
          "name": "id",
          "type": "uint256"
        },
        {
          "name": "money",
          "type": "uint256"
        },
        {
          "name": "giver",
          "type": "address"
        },
        {
          "name": "asker",
          "type": "address"
        },
        {
          "name": "isTake",
          "type": "bool"
        },
        {
          "name": "isBack",
          "type": "bool"
        },
        {
          "name": "isDone",
          "type": "bool"
        }
      ],
      "payable": false,
      "stateMutability": "view",
      "type": "function",
      "signature": "0x28bdcde8"
    },
    {
      "constant": true,
      "inputs": [],
      "name": "billCount",
      "outputs": [
        {
          "name": "",
          "type": "uint256"
        }
      ],
      "payable": false,
      "stateMutability": "view",
      "type": "function",
      "signature": "0x41dc3412"
    },
    {
      "constant": false,
      "inputs": [
        {
          "name": "_money",
          "type": "uint256"
        },
        {
          "name": "_giver",
          "type": "address"
        },
        {
          "name": "_asker",
          "type": "address"
        }
      ],
      "name": "createBill",
      "outputs": [],
      "payable": true,
      "stateMutability": "payable",
      "type": "function",
      "signature": "0x30c04db4"
    },
    {
      "constant": false,
      "inputs": [
        {
          "name": "_id",
          "type": "uint256"
        },
        {
          "name": "_money",
          "type": "uint256"
        }
      ],
      "name": "takeMoney",
      "outputs": [],
      "payable": false,
      "stateMutability": "nonpayable",
      "type": "function",
      "signature": "0x1a856958"
    },
    {
      "constant": false,
      "inputs": [
        {
          "name": "_id",
          "type": "uint256"
        }
      ],
      "name": "backMoney",
      "outputs": [],
      "payable": true,
      "stateMutability": "payable",
      "type": "function",
      "signature": "0x60f0a0c3"
    },
    {
      "constant": false,
      "inputs": [
        {
          "name": "_id",
          "type": "uint256"
        },
        {
          "name": "_money",
          "type": "uint256"
        }
      ],
      "name": "healMoney",
      "outputs": [],
      "payable": false,
      "stateMutability": "nonpayable",
      "type": "function",
      "signature": "0x660e44d5"
    }
  ],
  "bytecode": "0x608060405234801561001057600080fd5b50610df9806100206000396000f3fe608060405260043610610078576000357c0100000000000000000000000000000000000000000000000000000000900463ffffffff1680631a8569581461007d57806328bdcde8146100c257806330c04db41461019f57806341dc34121461020d57806360f0a0c314610238578063660e44d514610266575b600080fd5b34801561008957600080fd5b506100c0600480360360408110156100a057600080fd5b8101908080359060200190929190803590602001909291905050506102ab565b005b3480156100ce57600080fd5b506100fb600480360360208110156100e557600080fd5b8101908080359060200190929190505050610546565b604051808881526020018781526020018673ffffffffffffffffffffffffffffffffffffffff1673ffffffffffffffffffffffffffffffffffffffff1681526020018573ffffffffffffffffffffffffffffffffffffffff1673ffffffffffffffffffffffffffffffffffffffff16815260200184151515158152602001831515151581526020018215151515815260200197505050505050505060405180910390f35b61020b600480360360608110156101b557600080fd5b8101908080359060200190929190803573ffffffffffffffffffffffffffffffffffffffff169060200190929190803573ffffffffffffffffffffffffffffffffffffffff1690602001909291905050506105ef565b005b34801561021957600080fd5b5061022261073f565b6040518082815260200191505060405180910390f35b6102646004803603602081101561024e57600080fd5b8101908080359060200190929190505050610745565b005b34801561027257600080fd5b506102a96004803603604081101561028957600080fd5b810190808035906020019092919080359060200190929190505050610900565b005b600080838152602001908152602001600020600101548114151561035d576040517f08c379a000000000000000000000000000000000000000000000000000000000815260040180806020018281038252603a8152602001807f546865206d6f6e6579206973207468652073616d6520617320746865206d6f6e81526020017f65792070726576696f75736c7920726567697374657265642e2000000000000081525060400191505060405180910390fd5b60008083815260200190815260200160002060030160009054906101000a900473ffffffffffffffffffffffffffffffffffffffff1673ffffffffffffffffffffffffffffffffffffffff163373ffffffffffffffffffffffffffffffffffffffff16141515610435576040517f08c379a000000000000000000000000000000000000000000000000000000000815260040180806020018281038252601e8152602001807f5468652072657175657374207761732073656e742062792061736b65722e000081525060200191505060405180910390fd5b60008083815260200190815260200160002060030160149054906101000a900460ff161515156104cd576040517f08c379a00000000000000000000000000000000000000000000000000000000081526004018080602001828103825260178152602001807f41736b6572206e657665722074616b65206d6f6e65792e00000000000000000081525060200191505060405180910390fd5b600160008084815260200190815260200160002060030160146101000a81548160ff0219169083151502179055503373ffffffffffffffffffffffffffffffffffffffff166108fc829081150290604051600060405180830381858888f19350505050158015610541573d6000803e3d6000fd5b505050565b60006020528060005260406000206000915090508060000154908060010154908060020160009054906101000a900473ffffffffffffffffffffffffffffffffffffffff16908060030160009054906101000a900473ffffffffffffffffffffffffffffffffffffffff16908060030160149054906101000a900460ff16908060030160159054906101000a900460ff16908060030160169054906101000a900460ff16905087565b823414151561068c576040517f08c379a000000000000000000000000000000000000000000000000000000000815260040180806020018281038252603a8152602001807f546865206d6f6e6579206973207468652073616d6520617320746865206d6f6e81526020017f65792070726576696f75736c7920726567697374657265642e2000000000000081525060400191505060405180910390fd5b8173ffffffffffffffffffffffffffffffffffffffff163373ffffffffffffffffffffffffffffffffffffffff1614151561072f576040517f08c379a000000000000000000000000000000000000000000000000000000000815260040180806020018281038252601e8152602001807f5468652072657175657374207761732073656e742062792067697665722e000081525060200191505060405180910390fd5b61073a838383610c32565b505050565b60015481565b60008082815260200190815260200160002060010154341415156107f7576040517f08c379a000000000000000000000000000000000000000000000000000000000815260040180806020018281038252603a8152602001807f546865206d6f6e6579206973207468652073616d6520617320746865206d6f6e81526020017f65792070726576696f75736c7920726567697374657265642e2000000000000081525060400191505060405180910390fd5b60008082815260200190815260200160002060030160009054906101000a900473ffffffffffffffffffffffffffffffffffffffff1673ffffffffffffffffffffffffffffffffffffffff163373ffffffffffffffffffffffffffffffffffffffff161415156108cf576040517f08c379a000000000000000000000000000000000000000000000000000000000815260040180806020018281038252601e8152602001807f5468652072657175657374207761732073656e742062792061736b65722e000081525060200191505060405180910390fd5b600160008083815260200190815260200160002060030160156101000a81548160ff02191690831515021790555050565b60008083815260200190815260200160002060010154811415156109b2576040517f08c379a000000000000000000000000000000000000000000000000000000000815260040180806020018281038252603a8152602001807f546865206d6f6e6579206973207468652073616d6520617320746865206d6f6e81526020017f65792070726576696f75736c7920726567697374657265642e2000000000000081525060400191505060405180910390fd5b60008083815260200190815260200160002060020160009054906101000a900473ffffffffffffffffffffffffffffffffffffffff1673ffffffffffffffffffffffffffffffffffffffff163373ffffffffffffffffffffffffffffffffffffffff16141515610a8a576040517f08c379a000000000000000000000000000000000000000000000000000000000815260040180806020018281038252601e8152602001807f5468652072657175657374207761732073656e742062792067697665722e000081525060200191505060405180910390fd5b60008083815260200190815260200160002060030160159054906101000a900460ff161515610b21576040517f08c379a00000000000000000000000000000000000000000000000000000000081526004018080602001828103825260178152602001807f41736b6572206861642072657475726e206d6f6e65792e00000000000000000081525060200191505060405180910390fd5b60008083815260200190815260200160002060030160169054906101000a900460ff16151515610bb9576040517f08c379a00000000000000000000000000000000000000000000000000000000081526004018080602001828103825260178152602001807f4769766572206e657665722074616b65206d6f6e65792e00000000000000000081525060200191505060405180910390fd5b600160008084815260200190815260200160002060030160166101000a81548160ff0219169083151502179055503373ffffffffffffffffffffffffffffffffffffffff166108fc829081150290604051600060405180830381858888f19350505050158015610c2d573d6000803e3d6000fd5b505050565b60016000815480929190600101919050555060e06040519081016040528060015481526020018481526020018373ffffffffffffffffffffffffffffffffffffffff1681526020018273ffffffffffffffffffffffffffffffffffffffff168152602001600015158152602001600015158152602001600015158152506000806001548152602001908152602001600020600082015181600001556020820151816001015560408201518160020160006101000a81548173ffffffffffffffffffffffffffffffffffffffff021916908373ffffffffffffffffffffffffffffffffffffffff16021790555060608201518160030160006101000a81548173ffffffffffffffffffffffffffffffffffffffff021916908373ffffffffffffffffffffffffffffffffffffffff16021790555060808201518160030160146101000a81548160ff02191690831515021790555060a08201518160030160156101000a81548160ff02191690831515021790555060c08201518160030160166101000a81548160ff02191690831515021790555090505050505056fea165627a7a72305820479c36fe0c9a091dcf2effa0a76ffa230e8ea6584014eb9b1dee168a5153e87a0029",
  "source": "pragma solidity ^0.5.0;\n\ncontract Cobweb {\n    // model a bill\n    struct Bill {\n        uint id;\n        uint money;\n        address giver;\n        address asker;\n        bool isTake;\n        bool isBack;\n        bool isDone;\n    }\n\n    // store bills\n    // fetch bills\n    mapping(uint => Bill) public bills;\n\n    // bill id\n    uint public billCount;\n\n    // everyone use to new a bill\n    function createBill (uint _money, address _giver, address _asker) public payable {\n        require(msg.value == _money, \"The money is the same as the money previously registered. \");\n        require(msg.sender == _giver, \"The request was sent by giver.\");\n        _createBill(_money, _giver, _asker);\n    }\n\n    // asker can use this methon to get money\n    function takeMoney (uint _id, uint _money) public {\n        require(_money == bills[_id].money, \"The money is the same as the money previously registered. \");\n        require(msg.sender == bills[_id].asker, \"The request was sent by asker.\");\n        require(!bills[_id].isTake, \"Asker never take money.\");\n        bills[_id].isTake = true;\n        msg.sender.transfer(_money);\n    }\n\n    // asker can use this methon to return money\n    function backMoney (uint _id) public payable {\n        require(msg.value == bills[_id].money, \"The money is the same as the money previously registered. \");\n        require(msg.sender == bills[_id].asker, \"The request was sent by asker.\");\n        bills[_id].isBack = true;\n    }\n\n    // giver can use this methon to callback money\n    function healMoney (uint _id, uint _money) public {\n        require(_money == bills[_id].money, \"The money is the same as the money previously registered. \");\n        require(msg.sender == bills[_id].giver, \"The request was sent by giver.\");\n        require(bills[_id].isBack, \"Asker had return money.\");\n        require(!bills[_id].isDone, \"Giver never take money.\");\n        bills[_id].isDone = true;\n        msg.sender.transfer(_money);\n    }\n\n    // to new a bill\n    function _createBill (uint _money, address _giver, address _asker) private {\n        billCount ++;\n        bills[billCount] = Bill(billCount, _money, _giver, _asker, false, false, false);\n    }\n}",
  "sourcePath": "/Users/kamleungcheong/code/Cobweb/contracts/Cobweb.sol",
  "compiler": {
    "name": "solc",
    "version": "0.5.0+commit.1d4f565a.Emscripten.clang"
  },
  "schemaVersion": "3.0.0",
  "updatedAt": "2018-12-29T08:27:43.540Z",
  "devdoc": {
    "methods": {}
  },
  "userdoc": {
    "methods": {}
  }
}