{
  "contractName": "LNet",
  "abi": [
    {
      "constant": true,
      "inputs": [
        {
          "name": "",
          "type": "uint256"
        }
      ],
      "name": "bills",
      "outputs": [
        {
          "name": "id",
          "type": "uint256"
        },
        {
          "name": "money",
          "type": "uint256"
        },
        {
          "name": "giver",
          "type": "address"
        },
        {
          "name": "asker",
          "type": "address"
        }
      ],
      "payable": false,
      "stateMutability": "view",
      "type": "function",
      "signature": "0x28bdcde8"
    },
    {
      "constant": true,
      "inputs": [],
      "name": "billCount",
      "outputs": [
        {
          "name": "",
          "type": "uint256"
        }
      ],
      "payable": false,
      "stateMutability": "view",
      "type": "function",
      "signature": "0x41dc3412"
    },
    {
      "inputs": [],
      "payable": false,
      "stateMutability": "nonpayable",
      "type": "constructor",
      "signature": "constructor"
    }
  ],
  "bytecode": "0x608060405234801561001057600080fd5b50610054606473ef07122bbf3a2dccc4085e83650ba781f4db4ae77362a9367ae2ff42b7b58c9df7a7572c09816f419661009d640100000000026401000000009004565b6100986101f473a3e60385738e626bd09f79fad5151d41db8e6034735c922c7af44fa622ad759b2829422caa4a6f667761009d640100000000026401000000009004565b6101bd565b60016000815480929190600101919050555060806040519081016040528060015481526020018481526020018373ffffffffffffffffffffffffffffffffffffffff1681526020018273ffffffffffffffffffffffffffffffffffffffff168152506000806001548152602001908152602001600020600082015181600001556020820151816001015560408201518160020160006101000a81548173ffffffffffffffffffffffffffffffffffffffff021916908373ffffffffffffffffffffffffffffffffffffffff16021790555060608201518160030160006101000a81548173ffffffffffffffffffffffffffffffffffffffff021916908373ffffffffffffffffffffffffffffffffffffffff160217905550905050505050565b6101da806101cc6000396000f3fe60806040526004361061004c576000357c0100000000000000000000000000000000000000000000000000000000900463ffffffff16806328bdcde81461005157806341dc34121461010d575b600080fd5b34801561005d57600080fd5b5061008a6004803603602081101561007457600080fd5b8101908080359060200190929190505050610138565b604051808581526020018481526020018373ffffffffffffffffffffffffffffffffffffffff1673ffffffffffffffffffffffffffffffffffffffff1681526020018273ffffffffffffffffffffffffffffffffffffffff1673ffffffffffffffffffffffffffffffffffffffff16815260200194505050505060405180910390f35b34801561011957600080fd5b506101226101a8565b6040518082815260200191505060405180910390f35b60006020528060005260406000206000915090508060000154908060010154908060020160009054906101000a900473ffffffffffffffffffffffffffffffffffffffff16908060030160009054906101000a900473ffffffffffffffffffffffffffffffffffffffff16905084565b6001548156fea165627a7a72305820f61d4346cc7b6d53448651c2515a18c7fc59a1d1dce12de9dbe58b477de3ecd40029",
  "source": "pragma solidity ^0.5.0;\n\ncontract LNet {\n    // model a bill\n    struct Bill {\n        uint id;\n        uint money;\n        address giver;\n        address asker;\n    }\n\n    // store bills\n    // fetch bills\n    mapping(uint => Bill) public bills;\n\n    uint public billCount;\n\n    constructor () public {\n        _createBill(100, 0xEf07122bbf3A2DCcc4085E83650bA781F4Db4AE7, 0x62a9367Ae2ff42B7b58c9DF7a7572c09816F4196);\n        _createBill(500, 0xa3E60385738e626BD09F79FAd5151D41dB8E6034, 0x5c922c7aF44FA622AD759B2829422CAa4a6f6677);\n    }\n\n    function _createBill (uint _money, address _giver, address _asker) private {\n        billCount ++;\n        bills[billCount] = Bill(billCount, _money, _giver, _asker);\n    }\n}",
  "sourcePath": "/Users/kamleungcheong/code/LNet/contracts/LNet.sol",
  "compiler": {
    "name": "solc",
    "version": "0.5.0+commit.1d4f565a.Emscripten.clang"
  },
  "schemaVersion": "3.0.0",
  "updatedAt": "2018-12-26T04:38:24.972Z",
  "devdoc": {
    "methods": {}
  },
  "userdoc": {
    "methods": {}
  }
}